:020000040800F2
:1020000000500020553400085334000851340008B3
:102010005134000851340008513400080000000019
:102020000000000000000000000000005334000821
:102030005334000800000000533400085D210008FC
:10204000513400085134000851340008513400085C
:10205000513400085134000851340008513400084C
:10206000513400085134000851340008513400083C
:10207000513400085134000851340008513400082C
:10208000513400085134000851340008513400081C
:10209000513400085134000851340008513400080C
:1020A00051340008513400085134000851340008FC
:1020B00051340008513400085134000851340008EC
:1020C00051340008513400085134000851340008DC
:1020D00051340008513400085134000851340008CC
:1020E00051340008513400085134000851340008BC
:1020F00051340008513400085134000851340008AC
:10210000513400085134000851340008513400089B
:10211000513400085134000851340008513400088B
:10212000513400085134000851340008513400087B
:10213000513400085134000851340008513400086B
:10214000513400085134000851340008513400085B
:1021500008B500F0D7FA01F0E9F9704710B50F4C57
:102160002268A3882AB9BDE8104019460C4800F03F
:1021700095BCA26812F001020BD00022022108488F
:1021800000F054FBA288074B1A60A3680133A360D8
:1021900010BD1146024800F049FBF6E79000002010
:1021A000000801401008014010B500F005FA144C79
:1021B000206000F025FC2368FBB94FF480730020F9
:1021C000A38001F097F90F4801F08CF9012000F08D
:1021D000D9F901F09BF901F0A1F923680121012B44
:1021E00084BF4FF40042084B084888BF1A6000F0D3
:1021F00007F900F09BF9002010BD4FF40073DEE7F3
:1022000090000020A0BB0D0010080140C83B000852
:10221000054AD37810791B0403EB0063507803441C
:10222000907803EB002070479C0000202DE9F041DE
:102230001D460B780F4603F07F03212B144669D10E
:102240004B78013B052B65D8DFE803F00343673982
:102250009D40DFF84C810DB12B882BB9062388F8FF
:1022600000300120BDE8F081CA788B784A4E43EAFD
:102270000223A6F808342B882168A6F800342A889F
:10228000304601F0E5FB7B883146B3B93378212B2A
:1022900013D1FFF7BDFF414B1B68984203D3D6F81B
:1022A0000C34984207D301200A2381F8100488F8DF
:1022B0000030BDE8F081C6F804040323CFE7384BB3
:1022C0001A780A2ACDD102221A70CAE70222344BA8
:1022D000FAE7334A117809299DBF4FF40973CB40BF
:1022E000DB430123DB0711D4092079882A4B01291C
:1022F000A3F808141070B4D9D3F8043402392A882A
:1023000003EB8121206801F0A3FBAAE70122002151
:1023100000F075FC0020BDE8F081214E276833787D
:10232000062B26D00A2B29D0032B24D104231A49AB
:10233000337091F80080FFF76BFFB1F80824014675
:10234000404600F01DF900233B702368020A5870D4
:102350002368000C9A7023683278D87023681A7149
:10236000002223685A7106230E4A2B80069B1A60AE
:1023700077E70723337000200346E5E7064B00208C
:1023800093F81034E0E70120054A236812781A70A8
:102390002880BDE8F08100BF9C00002000000020E4
:1023A00004000020A923000810B5134C2278042A49
:1023B00002D0072A1CD010BD00F0A2FB0F49B1F8D3
:1023C000080458B9FFF724FF0B78412B01D100F026
:1023D000B5F800F0A7FB0523237010BDD1F8043435
:1023E0000238B1F8002403EB802000F0B7F8F0E7E2
:1023F000BDE81040FFF7ACBE040000209C000020A8
:10240000F0B564263B4A3C4B04321B6852F8044C3E
:10241000126823441344394A85B01268384CC2F319
:102420000B02A2F10807B7FBF6F5092D51D93925A2
:1024300084F84A5084F84B50402A08BF8022314E1D
:10244000920202F10062C6F80C242F4A84F84C5024
:10245000126802F00302032A03D12C4A1268920781
:1024600002D5302284F872200024294D23FA04F288
:1024700002F00F0204343032202C05F8012DF5D182
:102480000022244C135D392B84BF073313550132CE
:10249000082AF7D100234FF4806486F81934029497
:1024A0001D4C1E4B0194042403F11002002918BF97
:1024B00013461B4A009402F10D0100F041FB7F22FC
:1024C0002121184B1860184B05B0BDE8F04000F012
:1024D0005ABC06FB15760A2705F1300EB6FBF7F558
:1024E00084F84AE005F1300E07FB156584F84BE0EF
:1024F0003035A1E7ECF7FF1FE8F7FF1FE0F7FF1FFC
:10250000040000209C000020202002401C200240EB
:10251000B5040020AD040020C00500200800002004
:10252000783A0008BC0500202D22000808B5024CAE
:10253000206800F031FBFBE7BC05002038B5064DF4
:1025400020F47F742B6824F003049C4203D02046BF
:1025500000F02EF92C6038BD80000020F8B50D4643
:1025600016460C46471A631B9E4203DCBDE8F84042
:10257000FFF7F3BD381934F8021B00F0E7F8F2E773
:102580006420704770470949094A0B68186802407F
:10259000B2F1005F09D1074AC3F3140313600B685B
:1025A0001A6882F308885B681847704700000020AB
:1025B0000000FE2F08ED00E04D4B70B51D461C6875
:1025C00014F00F0440F08C8040F2023000F06FFAFB
:1025D00040F2033000F06BFA4FF4417000F067FAFC
:1025E00040F2973000F063FA40F2172000F06CFAE6
:1025F0004FF4407000F05BFA40F2862000F057FA8A
:1026000021464FF4C04302223A4800F00FF94FF43C
:10261000C041384800F03AFA6424364E4FF4005175
:10262000304600F038FA013CF8D100284AD14FF486
:10263000407000F03CFA304A214613682F4843F0BE
:10264000007313604FF40043022200F0EFF84FF4E0
:1026500000412A4800F01CFA6424284E4FF400413F
:10266000304600F018FA013CF8D100283DD04FF474
:10267000004301220221224800F0D8F84FF4004123
:102680001F4800F005FA4FF40043012202211B48C5
:1026900000F0CCF84FF40041184800F0F9F902249A
:1026A0002B68022223F070632B602B68032143F018
:1026B000C0632B6011484FF4807300F0B7F8022C10
:1026C0000CD001244FF480510C4800F0E1F94FF494
:1026D000805301220221094800F0A8F8204670BD6D
:1026E0001A6822F003021A6069E70124D8E700BFE4
:1026F00004100240001001400400014000080140A5
:10270000000C0140054A136823F0F00343F08003F6
:1027100013600022024B1A60704700BF000801409E
:1027200008ED00E0064B1868064B1B889BB2B3F51A
:10273000007F82BF044B1B68184300F035007047D0
:102740000C200240E0F7FF1F4C20024038B5044641
:102750000D4600F0EFF9124B1B889BB2B3F5007FDA
:1027600019D9104B9C4216D90F4A136843F0010344
:102770001360258000F0DEF9094B1B889BB2B3F58E
:10278000007F0AD9074B9C4207D9074A136823F0F8
:102790000103136038BD054AE7E7044AF6E700BFC6
:1027A000E0F7FF1FFFFF0708502002401020024003
:1027B00010B5044600F0BEF9164B1B889BB2B3F56A
:1027C000007F1ED9144B9C421BD9144B1A6842F04F
:1027D00002021A60124A14601A6842F040021A603B
:1027E00000F0A8F90B4B1B889BB2B3F5007F0FD903
:1027F000094B9C420CD9094A136823F00203136069
:1028000010BD084B1A6842F002021A60064AE2E75D
:10281000044AF1E7E0F7FF1FFFFF070850200240DE
:102820005420024010200240142002402DE9F043C1
:102830004FF6E07700264FF00F0896469C46026858
:1028400043684CFA06F4E40718D5072EB4B28BBFE0
:102850003C4691469946A40098BFA4B208FA04F5F4
:1028600029EA0509A51C0EFA05F501FA04F42C4322
:1028700044EA0904082E2CBF2346224601360437B9
:10288000102EBFB2DDD102604360BDE8F0830000CE
:10289000024A136843F080731360704700100240CF
:1028A000062822D8DFE800F004090E13181D1F00C7
:1028B0000F4B1868C0F3406070470D4B1868C0F3A9
:1028C000C06070470A4B1868C0F340707047084BEF
:1028D0001868C0F340407047054B1868C0F34000CB
:1028E0007047044BF9E7044BF7E70020704700BF3F
:1028F000001002402010024024100240024608B599
:102900001046FFF7CDFF0028FAD008BD06280CD8E6
:10291000DFE800F004060C11161B1D00FFF7B8BF1E
:102920000C4A136843F0806313607047094A1368C8
:1029300043F08053F8E7074A136843F48033F3E722
:10294000044A136843F00103EEE7034AF9E7034A38
:10295000F7E700BF001002402010024024100240A0
:10296000034A136823F0030318431060704700BF45
:1029700004100240034A136823F4701343EA8040B2
:102980001060704704100240034A136823F4803338
:1029900043EA00401060704704100240034A136885
:1029A00023F4003343EA40401060704704100240B3
:1029B000034A136823F4404343EA803010607047B1
:1029C00004100240034A136823F4605343EAC02012
:1029D0001060704704100240034A136823F4E06358
:1029E00043EA00201060704704100240034A136855
:1029F00023F0F00343EA0010106070470410024017
:102A000008B50420FFF782FF0420FFF777FF0020BE
:102A1000FFF7A6FF0320FFF779FF0320FFF76EFF04
:102A20000120FFF79DFF0020FFF7E0FF0320FFF7E5
:102A3000BFFF0420FFF7D0FF0020FFF7C3FF0220F5
:102A400000F054F80720FFF795FF0120FFF79CFFE7
:102A50000020FFF7A3FFFFF71BFF0020FFF74EFF4B
:102A60000220FFF77DFF044B044A05491360054A25
:102A70001160054A136008BD00A24A0484000020CA
:102A800000512502880000208C0000200161704761
:102A9000090401617047806808407047C36803EA11
:102AA000010221EA030141EA024101617047430941
:102AB00000F01F02012003F1804303F5043319687D
:102AC000904008431860704700F01F02430901203E
:102AD00003F1804303F50433196890400143196002
:102AE0001A6822EA0000186070470000034A136861
:102AF00023F0070318431060704700BF0020024016
:102B0000054A136843F080031360044B044A1A60BB
:102B100002F188321A6070471020024004200240FF
:102B200023016745024A136843F08003136070472E
:102B30001020024008B5FFF7F5FDC307FBD408BD20
:102B40002DE9F0411E46036805468846174698471A
:102B5000069BC0F8DC50C360079BC0F8008003618F
:102B6000BDF8203047608382084B86600367084BBE
:102B7000C366084B83660023C0F8C830C0F8CC3069
:102B8000C0F8D030C0F8D430BDE8F081AD2D0008D9
:102B90001D2E0008A12E0008D0F8DC305B6A184713
:102BA00010B4D0F8DC40A468A44610BC604737B528
:102BB0000025044603688575C575DB792A462946D4
:102BC0000095FFF7EDFFD4F8DC3029465B6820461E
:102BD0009847E3691BB103B0BDE83040184703B024
:102BE00030BD10B4D0F8DC40E469A44610BC6047A6
:102BF00010B4D0F8DC40246AA44610BC6047D0F87A
:102C0000DC301B691847D0F8DC309B691847D0F8D6
:102C1000DC305B69184710B5012200210446FFF73C
:102C2000EEFF002384F82C3010BD70B50368828F4E
:102C3000C48EDB79A41A9C42A8BF1C46816BA6B245
:102C40000A44334600210546FFF7D2FF864205D0ED
:102C50002846FFF7E0FF4FF0FF3070BDAB8FA0B20A
:102C60001E44AE8770BD10B503680446DA79838FC1
:102C70009A4210D213460021826BFFF7B2FF022363
:102C800084F82C302368A26BD979A38F0A445B1A8D
:102C9000A263A38710BD826B0021FFF7A2FF94F807
:102CA0004430002B14BF0223032384F82C3000236C
:102CB00084F84430A387A36310BD2DE9F74F044681
:102CC0000E4600F1480500F1680B00F13C0900F1E7
:102CD000380800F1400A2F6857B93146204604F100
:102CE0003C0304F1380203B0BDE8F04F00F05EBBD6
:102CF000337869792A790B409A4203D008355D45CB
:102D0000E9D1EAE7CDF800A04B46424631462046DD
:102D1000B8470128F2D803B0BDE8F08F38B5036991
:102D2000044683638B79CA790D4643EA022383877D
:102D3000FFF7C3FF10B3EB88BBB1A28F21689342AA
:102D4000C9790ED97AB192FBF1F301FB1323B3FADF
:102D500083F35B0984F844302046BDE83840FFF730
:102D600082BF0023F6E71346F4E71A4619462046C9
:102D7000FFF737FF042384F82C3038BD2046BDE828
:102D80003840FFF748BF70B5002600EBC605AC6CB5
:102D90002CB10136042EF8D14FF0FF3070BD85F80C
:102DA0004C1085F84D20AB64204670BD70B50025F1
:102DB000044600F13006056401222946FFF727FF8B
:102DC0000823324629462046FFF712FF082804D080
:102DD0002046BDE87040FFF71EBFE38E2BB9314699
:102DE0002046BDE87040FFF799BF94F93020002AD3
:102DF000F5DBA28A9A42EBD32269A587A2632268F7
:102E00002046D2799A4234BF05230623002284F853
:102E10002C301146BDE87040FFF7F9BE90F82C3019
:102E200010B5062B044612D0072B27D0052B21D135
:102E3000FFF7FBFE002832DBA28FE38E9B1A22688D
:102E4000D27993422BDC062384F82C3010BDFFF797
:102E5000ECFE002823DB04F130012046FFF72DFFB4
:102E600038B1002320461A461946FFF7BAFE04235C
:102E7000EAE72046BDE81040FFF7CDBE00231A4622
:102E80001946FFF7B5FE002384F82C30236C1BB1E4
:102E900004F13001204698470023236410BD10BD83
:102EA00090F82C3010B5032B044607D0042B0ED01D
:102EB000022B23D1BDE81040FFF7D5BE0723BDE8A4
:102EC0001040002280F82C301146FFF7A0BE036CA2
:102ED00013B100F13001984794F8303053B994F8A9
:102EE0003130052B06D1618ED4F8DC30C9B25B6875
:102EF00020469847002384F82C3010BDBDE81040D0
:102F0000FFF789BEF8B50D464988044679B10368D4
:102F10000D26587C0023834201D30020F8BD62684F
:102F200006FB032252798A4203D00133F3E74FF0C4
:102F3000FF330133DBB2E3754BB9D4F8DC30204604
:102F4000DB689847D4F8C8309BB90120F8BD0D2242
:102F5000534362680D3B13440022104619798A429C
:102F6000EBD2D3F809101601715801B10870013283
:102F7000F4E7002304F1C806A3642365A365236670
:102F800004F1D80756F8043B13B1698820469847E6
:102F9000BE42F7D1D9E719881268012984BF0121FF
:102FA0001980C37D2BB141680D2000FB031313F87A
:102FB000083C13700120704730B50D24C57D406872
:102FC0006C430D3C04448D88207985420CD201204D
:102FD00018808B88D4F809001B011B58126803B1B4
:102FE0001B781370012030BD002030BD19880120EE
:102FF000022984BF02211980002311680B70126816
:103000005370704738B514461A882568022A84BF61
:1030100002221A808988C9B2FFF7F5FD003018BF77
:10302000012000222870236801205A7038BD08B59D
:1030300089880122C9B2FFF7E2FD012008BD08B569
:1030400089880022C9B2FFF7DAFD012008BD10B55A
:103050000B7873B94C887F2C0BD8D0F8DC30847592
:1030600093F830201AB149885B68C9B298470120AB
:1030700010BD002010BD0D2270B51C46C37D5A4303
:1030800043680D3A13441D798A88954216D9D3F8BE
:1030900009501201AE184B8836799E420ED9AA58B3
:1030A00052B11370D0F8D83013B14A888988984744
:1030B00000230120238070BD002BF3D0002070BDC1
:1030C0002DE9F04F4D881F462B0A022B89B016467A
:1030D00011D0032B00F0E680012B40F01B81026829
:1030E0003988326012788A4228BF0A463A80012025
:1030F00009B0BDE8F08F0D26EDB26E430369D0F83C
:103100000480136018F806503C880193A54228BF3C
:10311000254608EB06032A4619460198029300F05B
:1031200097FC0022019B641B18F806602B44A4B294
:103130000392029A1179BDF80C20914203D8019BA9
:103140005E803D80D3E7BDF80C2012010792029A01
:103150000799D2F809200A44D2F80890B9F1000F73
:1031600014D099F800801846A04528BFA0464946CB
:10317000424600F06DFC034699F80020A4EB0804D9
:10318000454416444344A4B2ADB2B6B20022049200
:10319000029A0799D2F809200A441079BDF8101054
:1031A000884202D8039A0132C2E71521BDF8109077
:1031B000D2F80CA001FB09F91AF809800AEB090BF7
:1031C000A04528BFA04659464246184600F040FC9C
:1031D00003461AF80920DBF80D10A4EB0804454457
:1031E00016444344A4B2ADB2B6B2A9B1DBF8118023
:1031F0001846A045A8BFA0461FFA88F94A4600F025
:1032000027FC0346DBF81120A4EB09044D441644C7
:103210004B44A4B2ADB2B6B2002205929BF80410A2
:10322000BDF81420914202D8049A0132AFE7BDF8EC
:103230001490DBF80920C9EB091912F8098002EB98
:10324000090AA04528BFA0460692514642461846A4
:1032500000F0FEFB0346069ADAF8071012F8092080
:10326000A4EB0804454416444344A4B2ADB2B6B23C
:10327000A9B1DAF80B801846A045A8BFA0461FFAEE
:1032800088F94A4600F0E4FB0346DAF80B20A4EB89
:1032900009044D4416444B44A4B2ADB2B6B2059AEB
:1032A0000132BAE715F0FF0504690DD10923A370B7
:1032B0000423E37023703B88042B28BF04233B8046
:1032C00003236370346012E78368013D13B3C2685F
:1032D00095421FDA40F20942898891421AD153F887
:1032E0002550284600F0BFFB01304000C0B22070DE
:1032F0003B882946984228BF184638803B884A1B9D
:103300005B08013B9342DBDD11F8013B04EB420219
:103310005380F3E70020EBE619880120022984BFDF
:1033200002211980002311680B70126853707047D6
:1033300030B44C78092C06D8044D55F8244014B10B
:10334000A44630BC6047002030BC7047703B00088A
:1033500030B44C780B2C06D8044D55F8244014B1E9
:10336000A44630BC6047002030BC7047983B000842
:1033700010B44C78012C05D00ED3032C07D00020BC
:1033800010BC70474C88002CF9D1054C05E04C88E6
:10339000002CF4D1034C00E0034CA44610BC604761
:1033A0003F3000082F3000080530000810B40C78BA
:1033B00014F0600F06D104F01F04012C08D004D3D0
:1033C000022C08D0002010BC704710BCFFF7B0BF23
:1033D00010BCFFF7BDBF10BCFFF7CABF08B540F275
:1033E0009730FFF764FB0023054A064913600B6022
:1033F00041F80C3C4FF41C430348136008BD00BF68
:10340000405C0040505C0040B8040020013222F0D3
:1034100001020A44914200D1704731F8023B043066
:1034200040F8043CF6E7F0B502F0010652080D46FC
:10343000044613462BB91EB111F8223000F81230A1
:10344000F0BD35F8047B013B24F8027B9BB2F1E729
:10345000FEE770470022184C184919485318834258
:1034600016D30021174A934216D3174A174C1368F4
:10347000174D43F400731360AC4210D3154C164D36
:10348000AC4210D3FEF790FE144C154DAC420ED357
:10349000135953500432E1E719600433E3E754F859
:1034A000043B9847E8E754F8043B9847E8E754F8AA
:1034B000043B9847EAE700BFFC3B000800000020FF
:1034C00090000020C009002014ED00E0FC3B000843
:1034D000FC3B0008FC3B0008FC3B0008FC3B0008F0
:1034E000FC3B0008024B20F07F401860704700BF93
:1034F00014E000E0044A00F00400136823F0040321
:1035000003431360704700BF10E000E0024A1368F5
:1035100043F002031360704710E000E0024A1368B2
:1035200043F001031360704710E000E0014A024BD2
:103530001A60FEE70100FA050CED00E0024B41F0D5
:1035400080011960704700BF4C5C00403E2A0F4B61
:103550004FEAC1010DD91B68D0069BB219440C4B30
:1035600018BF203A0B4843EA4212490092B2425037
:1035700070471B68D0079BB248BF013219449202C2
:10358000044B490092B25A50704700BF505C004053
:103590000080FFFF0C6000402DE9F3411E464FF410
:1035A0000073ADF800304FF48063ADF802300023B3
:1035B000ADF804304FF4C06301F07F07BC0004F1A4
:1035C000804404F5B844ADF806302368054623F47A
:1035D000E04323F07F033B439BB22360236802A8B0
:1035E00000EB420223F4EC4332F8082C23F0700382
:1035F000134349B29BB20029DDF820802360314893
:103600004FEAC70E2ADB4FB303682A8B9BB29E4456
:103610002D4B4FEA4E0E43F80E20394632462846CF
:10362000FFF794FFB8F1000F46D1236823F441530C
:1036300023F030031B041B0C236022682B8B22F425
:10364000804222F0700292B282F4405242F4004270
:1036500042F080021E4422602E832AE002682B8BF7
:1036600092B27244520002F1804202F5C0421360ED
:10367000B8F1000F04D00C2202FB0752C2F8688098
:103680002268334422F4E04222F030021204120C89
:1036900022602268002922F4E04222F0400292B225
:1036A00082F0200242F4004242F0800222602B832A
:1036B000AADA02B0BDE8F0810C2303FB0757C7F874
:1036C0006C80B2E7505C00400860004048F2800126
:1036D00070B50B4A0B4E0C4D0C4C136833400B432A
:1036E0009BB2136013682B400B439BB242F8043B20
:1036F000A242F2D10368DB7920335B00038370BD03
:10370000045C0040BF8FFFFF8FBFFFFF205C0040C5
:1037100010B589B9002A14BF102420242C4803684E
:1037200023F4E04323F0400363401BB243F400431F
:1037300043F080039BB203600B0623D5002A14BF1D
:103740001022202201F07F014FEA810101F1804126
:1037500001F5B8410B6823F4E04323F0400383EA0A
:1037600002031BB243F4004343F080039BB20B609F
:1037700007D10B6823F4E04323F030031B041B0C38
:103780000B6010BD89005AB901F1804303F5B843BD
:10379000186820F4415020F030000004000C18603C
:1037A000002A14BF4FF480524FF4405201F180417F
:1037B00001F5B8410B6823F4804323F070035340B4
:1037C0001BB243F4004343F080039BB2D8E700BF31
:1037D000005C00400B060ED501F07F01890001F16D
:1037E000804101F5B841086800F03000102814BF8E
:1037F000002001207047890001F1804101F5B841A6
:10380000086800F44050B0F5805FF0E70B0612D472
:103810000B4B0C485A54890001F1804101F5B84125
:103820000B6803409BB23AB183F4005343F4004366
:1038300043F080030B60704783F44053F6E700BF0A
:10384000B40500208FBFFFFF01F07F01F8B58C00A9
:1038500004F1804404F5B8441D462368964603F0FD
:103860003003302B28D0154FCE003A68714692B203
:103870003244520002F1804202F5C04210882A46CA
:10388000400000F1804000F5C040FFF7BFFD3968FF
:103890000B4B89B20E4476009D51226822F4E0421F
:1038A00022F0400292B282F0300242F4004242F032
:1038B000800222602846F8BD0025FBE7505C0040EE
:1038C00004600040F8B58C0004F1804404F5B8446D
:1038D0001D4623680E4603F44053B3F5405F10467F
:1038E0003AD01E49F2000B681D4F9BB213445B0097
:1038F000FB58C3F30903AB4206DA0B689BB21344CF
:103900005B00FD58C5F309050B689BB21A44154BC3
:103910005200995A2A46490001F1804101F5C041FF
:10392000FFF781FD236823F0F0031B051B0D43F017
:10393000800323600C4B9B5D63B9226822F48042B4
:1039400022F0700292B282F4405242F4004242F0FD
:10395000800222602846F8BD0025FBE7505C00404D
:103960000C60004008600040B4050020364AF8B5FD
:103970001368044613F4806F9EB2154608D04FF6C4
:10398000FF33136040230383BDE8F840FFF70FB90E
:1039900019041AD503F00F0113F010034FEA810246
:1039A00034D002F1804303F5B8431B6813F4006F71
:1039B00014BF0223012301EB410003441A3354F8DE
:1039C0002330002B2FD020469847320505D54FF2E3
:1039D000FF732B60236A03B19847F30405D54EF6B5
:1039E000FF732B60636A03B1984716F4007F174E8C
:1039F00005D04FF6FF532B60A36A0BB39847A36A19
:103A0000F3B1336843F400733360F8BD02F18047CB
:103A100007F5B847386820F0F0000005000D40F4C5
:103A200000403860C7E702F1804303F5B8431A68E5
:103A300022F0F0021205120D42F080021A60C4E773
:103A4000336823F40073DFE7445C0040405C0040CF
:103A500010B5431E0A44914200D110BD11F8014B2C
:103A600003F8014FF7E7034613F8012B002AFBD1B7
:103A7000181A01387047000009020000010100C057
:103A800032983A00081201000200000040501D1751
:103A900060000101020301000000000001000000BD
:103AA00000000000A83A00080904000000FE01021E
:103AB0000400000000BD3A00080900000009210BC5
:103AC000FF0000041A01426C61636B20537068654B
:103AD000726520546563686E6F6C6F67696573000B
:103AE000426C61636B204D616769632028444655D1
:103AF00020557067726164652920666F7220535487
:103B00004C696E6B2F446973636F766572792C20F4
:103B1000284669726D77617265203238653331618C
:103B2000392D64697274792900426C61636B204D90
:103B30006167696320285570677261646529206632
:103B40006F722053544C696E6B2F446973636F76A8
:103B50006572792C20284669726D77617265203212
:103B60003865333161392D64697274792900000038
:103B700019330008000000000000000000000000F1
:103B8000000000004F300008C130000800000000B5
:103B9000972F0008052F0008ED2F000800000000F7
:103BA0000000000000000000000000000000000015
:103BB0000000000000000000000000000000000005
:103BC000B92F000877300008DD3300083D350008C4
:103BD00099350008CD360008113700080D38000867
:103BE000D537000849380008C53800086D39000885
:0C3BF000000000000000000000000000C9
:103BFC000000000802000000C63A0008293B00083B
:103C0C00AD04002028000020C63A0008E03A000865
:103C1C00AD0400205800002040496E7465726E613E
:103C2C006C20466C6173682020202F30783038303F
:103C3C0030303030302F382A3030314B612C30302E
:103C4C00302A3030314B670040496E7465726E61BA
:103C5C006C20466C6173682020202F30783038300F
:103C6C0030303030302F382A3030314B6700000084
:103C7C00FFFFFFFF00127A0000127A0000127A0098
:040000050800345566
:00000001FF
